:040000000128F82FAC
:1005620020001C150800723021009900080000309C
:10057200F000F1005F2308000030F000F1008B234F
:100582000800640080010131890BC32A00344A2328
:10059200B422D622DE22E622FE2208000630B8234A
:1005A2007108F5007008F400080080302C009300F8
:1005B2007F309200C0309100080080302C009900FA
:1005C2007F309800C0309700080020009C01FF3067
:1005D2009B009A019110B1220800FE30F000013018
:1005E200F1005F232C0013170800FE30F0000130E9
:1005F200F1008B232C0019170800013021009D0007
:1006020090309E009F019B019C0108007908F10037
:100612007808F000A12373087204710470040319AE
:10062200142BF6220800BD22080003307702853021
:1006320003197602031C1F2B0130202B0030F80017
:10064200F9017808F6007908F7000800F300F201D2
:10065200731C2F2B7008F1007108F2070310F00DC4
:100662000310F30C7308031D292B72080800780885
:10067200F0007908F100F2018E30FB007B08F300F4
:10068200F4018A247008F8007108F9007208FA006F
:10069200080022008C018E01173023008C000830E4
:1006A2008E003F3024008C001F3021008E003B3032
:1006B2008C00951722009D018B1108007108F30030
:1006C2007008F200F336F20CF336F20C72082C00CA
:1006D200920070080339F2000530F235FF3E031D27
:1006E2006E2B723591000800FD30F0000330F100EE
:1006F2005F232C0013170230F6000430F500BA30E5
:10070200F400F40B822BF50B822BF60B822B0000EC
:10071200B82208007108F3007008F200F336F20CF8
:10072200F336F20C72082C00980070080339F200BC
:100732000530F235FF3E031D9A2B723597000800F3
:10074200003071023230031970020318AA2B0130F3
:10075200AB2B0030F400F501F601F7017708F30046
:100762007608F2007508F1007408F0000800F30042
:100772007308F200F20DF20D21001D087206833992
:1007820072069D001D140330F200F20BC62B2100ED
:100792009D149D18CA2B1C08F1001B08F0000800CC
:1007A200F401F501701CD92B7208F4077308F53DAA
:1007B2000130F235F30D890BDA2B0130F136F00CF2
:1007C200890BDF2B70087104031DD32B7508F10010
:1007D2007408F00008000730B82371082000B9003F
:1007E2007008B8006830A0005330A1003B30A2006E
:1007F2003908F9003808F800382378082000A300E7
:100802007908A4007A08A5001B2620002008B2005F
:100812002108B3002208B400B730F800D130F90043
:100822003B30FA003208FB003308FC003408FD00BC
:10083200742578082000B5007908B6007A08B70058
:100842003508F0003608F1003708F200EE2471088E
:100852002000B1007008B000080002302000C10082
:100862009630C0002E30BF00BF0B352CC00B352C8C
:10087200C10B352C0000C82221000E102000C60139
:1008820006302000C0003030BF00BF0B462CC00B2A
:10089200462C0000EC2320003108C3003008C200BF
:1008A2004308F9004208F8000723CF227508200008
:1008B200C8007408C7004808F7004708F600CE26AB
:1008C2002000BF00C0013F08C4004008C500440822
:1008D20045040319782C7523CF227508F700740894
:1008E200F600162376082000BF003F08C60046081F
:1008F2000319882CEE2220004808F7004708F6006A
:10090200162376082000BF003F08C600412CB822FB
:10091200412C73080319922C720871047004031D90
:10092200A32C0030F0000030F1000030F20008008B
:100932000130F5007508F3070130F236F10CF00CC6
:10094200890B9E2CFE3072050319BC2C992C0130A8
:10095200F5007508F3070130F00700300318013085
:10096200F107003003180130F2070130F236F10CC2
:10097200F00C890BB72CFF3072050319C92CA82C77
:100982000130F3020130F035F10DF20D890BC42C68
:10099200F11BCF2C023073020318C12C7318D72C11
:1009A200FF30F0057F30F105FF30F2050310F30C44
:1009B2007308F500F601F7011030F535F60DF70D65
:1009C200890BDE2C7508F0047608F1047708F2042E
:1009D200740803190800F21708007008F40071087F
:1009E200F5007208F6000310750D760DF700770812
:1009F200FD007D08031D062D0030F3000030F200DB
:100A02000030F1000030F00008007008F4007108B6
:100A1200F5007208F6001730F636F50CF40C890B67
:100A22000D2D7408F7007708F800F117FF30F00574
:100A3200FF30F1050030F2057008F9007108FA0084
:100A42007208FB00FC018E30FD02FD1F442D7D0863
:100A5200803A8F3E0318362D0030F3000030F2004A
:100A62000030F1000030F00008000130FC36FB0CD1
:100A7200FA0CF90C890B372D0130F4007408FD07CC
:100A820003195D2D362D18307D02031C5A2D0030BE
:100A9200F3000030F2000030F1000030F0000800F6
:100AA2000130F935FA0DFB0DFC0D890B522D013089
:100AB200FD027D08031D512D780803196B2DF909DC
:100AC200FA09FB09FC09F90A0319FA0A0319FB0AD4
:100AD2000319FC0A7C08F3007B08F2007A08F10093
:100AE2007908F00008007B082000A0007C08A10023
:100AF2007D08A2000310210D220DA3002308A800E7
:100B02002808031D8B2D0030F8000030F90000305A
:100B1200FA0008007808A0007908A1007A08A2006B
:100B22000310210D220DA3002308A9002908031D8B
:100B3200A12D0030F8000030F9000030FA00080062
:100B42000030A5000030A6000030A7008930290738
:100B5200A0002008A8027B08A0007C08A1007D0854
:100B6200A2001030A236A10CA00C890BB32D2008D4
:100B7200A3002308A9007808A0007908A1007A0838
:100B8200A2001030A236A10CA00C890BC32D2008A4
:100B9200A3002308A9068030A0002008A905FC179D
:100BA200FF30FB05FF30FC050030FD05F917FF3073
:100BB200F805FF30F9050030FA051830A0002008CA
:100BC200A4000130A535A60DA70D890BE32D7A08E7
:100BD2007D02031DF22D79087C02031DF22D780897
:100BE2007B02031CFB2D7808FB027908FC3B7A0888
:100BF200FD3B25140130FB35FC0DFD0D890BFC2D51
:100C02000130A402031DE22D2508F0002608F100A0
:100C12002708F2002808A0002008F3002908A100F4
:100C22002108F4008A247008F8007108F90072089B
:100C3200FA00080020002008A6002108A7002208C8
:100C4200A8000310270D280DA9002908AA002A08C8
:100C5200031D322E0030A0000030A1000030A2009F
:100C620008002308A6002408A7002508A8000310EE
:100C7200270D280DA9002908AF002F08031D482EB3
:100C82000030A0000030A1000030A20008002F08B0
:100C92007B3EA6002608AA072008A6002108A70076
:100CA2002208A8001030A836A70CA60C890B542ED7
:100CB2002608A9002908AF002308A6002408A700D7
:100CC2002508A8001030A836A70CA60C890B642EA4
:100CD2002608A9002908AF068030A6002608AF051D
:100CE200A117A417FF30A305FF30A4050030A50506
:100CF2000030AB000030AC000030AD000730A60081
:100D02002608AE00201C8B2E2308AB072408AC3D1E
:100D12002508AD3D0130A236A10CA00C890B8C2E0A
:100D22000130A335A40DA50D890B922E0130AE0220
:100D3200031D832E0930A6002608AE00201CA72E14
:100D42002308AB072408AC3D2508AD3D0130A2368F
:100D5200A10CA00C890BA82E0130AD36AC0CAB0C4B
:100D6200890BAE2E0130AE02031D9F2E2B08F00020
:100D72002C08F1002D08F2002A08A6002608F3002C
:100D82002F08A7002708F4008A2470082000A0007A
:100D92007108A1007208A20008000C30200049026C
:100DA2000318E12E49354A3E860087017608C03F86
:100DB2007708C13F0130F8007808C9070030080001
:100DC200BE010B303E020318FB2E3E35023E4A3E68
:100DD200860087013E354A3E84008501403F803FC0
:100DE200413F813F0130F8007808BE070B303E02D8
:100DF200031CE62E7708E1007608E000BE0104300D
:100E02003E020318D12F3E08F800F9017808F000DD
:100E12007908F1000330F2000030F300D1237008AA
:100E22000907043E4A3E860087010330FA007A0829
:100E3200F00020003E08272309074A3E840085016E
:100E4200003FFB00013FFC00FB09FC09FB0A031900
:100E5200FC0A403F7B072000B800413F7C3DB900BF
:100E62000330F8007808F0003E08272309074A3EBD
:100E720086008701403FF900413FFA00F935FA0D3B
:100E8200F909FA09F90A0319FA0A0330FB007B0887
:100E9200F00020003E0827230907043E4A3E860050
:100EA2008701403FFC00413FFD00FC35FD0D790804
:100EB2007C072000BA007A087D3DBB003E08F8009E
:100EC200F9017808F0007908F1000330F2000030EF
:100ED200F300D12370080907043E4A3E86008701C9
:100EE2000330FA007A08F00020003E0827230907A1
:100EF2004A3E84008501003FFB00013FFC00FB09E4
:100F0200FC09FB0A0319FC0A403F7B072000BC00D6
:100F1200413F7C3DBD000330F8007808F0003E08F8
:100F220027230907203E8600870120003808C03F9A
:100F32003908C13F3E08F800F9017808F000790845
:100F4200F1000330F2000030F300D12370080907EA
:100F5200023E203E8600870120003A08C03F3B083F
:100F6200C13F3E08F800F9017808F0007908F10065
:100F72000330F2000030F300D12370080907043E69
:100F8200203E8600870120003C08C03F3D08C13F4B
:100F92000130F8007808BE0704303E02031C042F1B
:100FA200BE010C303E020318F62F3E35203E86006D
:100FB2008701403FF800413FF9007908803AFA0082
:100FC20081307A02031DE72FF5307802031CED2FE2
:100FD2002000C901013008000130F8007808200023
:100FE200BE070C303E02031CD62F003008004930E9
:0E0FF2008400003085001930C22220002E2C11
:020000040001F9
:04000E00E4FFFFDF2D
:00000001FF
